{
  "_format": "hh-sol-artifact-1",
  "contractName": "Web3RSVP",
  "sourceName": "contracts/web3rsvp.sol",
  "abi": [
    {
      "anonymous": false,
      "inputs": [
        {
          "indexed": false,
          "internalType": "bytes32",
          "name": "eventId",
          "type": "bytes32"
        }
      ],
      "name": "DepositsPaidOut",
      "type": "event"
    },
    {
      "anonymous": false,
      "inputs": [
        {
          "indexed": false,
          "internalType": "bytes32",
          "name": "eventId",
          "type": "bytes32"
        },
        {
          "indexed": false,
          "internalType": "address",
          "name": "creatorAddress",
          "type": "address"
        },
        {
          "indexed": false,
          "internalType": "uint256",
          "name": "eventTimeStamp",
          "type": "uint256"
        },
        {
          "indexed": false,
          "internalType": "uint256",
          "name": "maxCapacity",
          "type": "uint256"
        },
        {
          "indexed": false,
          "internalType": "uint256",
          "name": "deposit",
          "type": "uint256"
        },
        {
          "indexed": false,
          "internalType": "string",
          "name": "eventDataCID",
          "type": "string"
        }
      ],
      "name": "NewEventCreated",
      "type": "event"
    },
    {
      "anonymous": false,
      "inputs": [
        {
          "indexed": false,
          "internalType": "bytes32",
          "name": "eventId",
          "type": "bytes32"
        },
        {
          "indexed": false,
          "internalType": "address",
          "name": "attendeeAddress",
          "type": "address"
        }
      ],
      "name": "NewRsvp",
      "type": "event"
    },
    {
      "anonymous": false,
      "inputs": [
        {
          "indexed": false,
          "internalType": "bytes32",
          "name": "eventId",
          "type": "bytes32"
        },
        {
          "indexed": false,
          "internalType": "address",
          "name": "attendeeAddress",
          "type": "address"
        }
      ],
      "name": "confirmedAttendee",
      "type": "event"
    },
    {
      "inputs": [
        {
          "internalType": "bytes32",
          "name": "eventId",
          "type": "bytes32"
        }
      ],
      "name": "confirmAllAttendees",
      "outputs": [],
      "stateMutability": "nonpayable",
      "type": "function"
    },
    {
      "inputs": [
        {
          "internalType": "bytes32",
          "name": "eventId",
          "type": "bytes32"
        },
        {
          "internalType": "address",
          "name": "attendee",
          "type": "address"
        }
      ],
      "name": "confirmAttendees",
      "outputs": [],
      "stateMutability": "nonpayable",
      "type": "function"
    },
    {
      "inputs": [
        {
          "internalType": "uint256",
          "name": "eventTimeStamp",
          "type": "uint256"
        },
        {
          "internalType": "uint256",
          "name": "deposit",
          "type": "uint256"
        },
        {
          "internalType": "uint256",
          "name": "maxCapacity",
          "type": "uint256"
        },
        {
          "internalType": "string",
          "name": "eventDataCID",
          "type": "string"
        }
      ],
      "name": "createNewEvent",
      "outputs": [],
      "stateMutability": "nonpayable",
      "type": "function"
    },
    {
      "inputs": [
        {
          "internalType": "bytes32",
          "name": "eventId",
          "type": "bytes32"
        }
      ],
      "name": "createNewRsvp",
      "outputs": [],
      "stateMutability": "payable",
      "type": "function"
    },
    {
      "inputs": [
        {
          "internalType": "bytes32",
          "name": "",
          "type": "bytes32"
        }
      ],
      "name": "idToEvent",
      "outputs": [
        {
          "internalType": "bytes32",
          "name": "eventId",
          "type": "bytes32"
        },
        {
          "internalType": "string",
          "name": "eventDataCID",
          "type": "string"
        },
        {
          "internalType": "address",
          "name": "eventOwner",
          "type": "address"
        },
        {
          "internalType": "uint256",
          "name": "eventTimeStamp",
          "type": "uint256"
        },
        {
          "internalType": "uint256",
          "name": "deposit",
          "type": "uint256"
        },
        {
          "internalType": "uint256",
          "name": "maxCapacity",
          "type": "uint256"
        },
        {
          "internalType": "bool",
          "name": "paidOut",
          "type": "bool"
        }
      ],
      "stateMutability": "view",
      "type": "function"
    },
    {
      "inputs": [
        {
          "internalType": "bytes32",
          "name": "eventId",
          "type": "bytes32"
        }
      ],
      "name": "withdrawUnclaimedDeposits",
      "outputs": [],
      "stateMutability": "nonpayable",
      "type": "function"
    }
  ],
  "bytecode": "0x608060405234801561001057600080fd5b50612142806100206000396000f3fe6080604052600436106100545760003560e01c806292098c1461005957806321f280101461008257806379747571146100ab578063909ef021146100d4578063acdbe01214610117578063b0ca528314610140575b600080fd5b34801561006557600080fd5b50610080600480360381019061007b91906114e3565b61015c565b005b34801561008e57600080fd5b506100a960048036038101906100a491906115ff565b610378565b005b3480156100b757600080fd5b506100d260048036038101906100cd919061163f565b610842565b005b3480156100e057600080fd5b506100fb60048036038101906100f6919061163f565b610c88565b60405161010e979695949392919061174d565b60405180910390f35b34801561012357600080fd5b5061013e6004803603810190610139919061163f565b610d7f565b005b61015a6004803603810190610155919061163f565b6110aa565b005b6000333087878760405160200161017795949392919061182c565b60405160208183030381529060405280519060200120905060608060405180610120016040528084815260200186868080601f016020809104026020016040519081016040528093929190818152602001838380828437600081840152601f19601f8201169050808301925050505050505081526020013373ffffffffffffffffffffffffffffffffffffffff16815260200189815260200188815260200187815260200183815260200182815260200160001515815250600080858152602001908152602001600020600082015181600001556020820151816001019080519060200190610267929190611311565b5060408201518160020160006101000a81548173ffffffffffffffffffffffffffffffffffffffff021916908373ffffffffffffffffffffffffffffffffffffffff160217905550606082015181600301556080820151816004015560a0820151816005015560c08201518160060190805190602001906102e9929190611397565b5060e0820151816007019080519060200190610306929190611397565b506101008201518160080160006101000a81548160ff0219169083151502179055509050507f2553138c3f9c9008f266dbdbe9fc64f5b71e098d06ef714a190a65a8b9fc6bf383338a898b8a8a60405161036697969594939291906118c7565b60405180910390a15050505050505050565b600080600084815260200190815260200160002090508060020160009054906101000a900473ffffffffffffffffffffffffffffffffffffffff1673ffffffffffffffffffffffffffffffffffffffff163373ffffffffffffffffffffffffffffffffffffffff1614610420576040517f08c379a00000000000000000000000000000000000000000000000000000000081526004016104179061197d565b60405180910390fd5b600080600090505b8260060180549050811015610502578373ffffffffffffffffffffffffffffffffffffffff168360060182815481106104645761046361199d565b5b9060005260206000200160009054906101000a900473ffffffffffffffffffffffffffffffffffffffff1673ffffffffffffffffffffffffffffffffffffffff1614156104ef578260060181815481106104c1576104c061199d565b5b9060005260206000200160009054906101000a900473ffffffffffffffffffffffffffffffffffffffff1691505b80806104fa906119fb565b915050610428565b508273ffffffffffffffffffffffffffffffffffffffff168173ffffffffffffffffffffffffffffffffffffffff1614610571576040517f08c379a000000000000000000000000000000000000000000000000000000000815260040161056890611a90565b60405180910390fd5b60005b8260070180549050811015610645578373ffffffffffffffffffffffffffffffffffffffff168360070182815481106105b0576105af61199d565b5b9060005260206000200160009054906101000a900473ffffffffffffffffffffffffffffffffffffffff1673ffffffffffffffffffffffffffffffffffffffff161415610632576040517f08c379a000000000000000000000000000000000000000000000000000000000815260040161062990611afc565b60405180910390fd5b808061063d906119fb565b915050610574565b50600015158260080160009054906101000a900460ff1615151461069e576040517f08c379a000000000000000000000000000000000000000000000000000000000815260040161069590611b68565b60405180910390fd5b81600701839080600181540180825580915050600190039060005260206000200160009091909190916101000a81548173ffffffffffffffffffffffffffffffffffffffff021916908373ffffffffffffffffffffffffffffffffffffffff16021790555060008373ffffffffffffffffffffffffffffffffffffffff16836004015460405161072d90611bb9565b60006040518083038185875af1925050503d806000811461076a576040519150601f19603f3d011682016040523d82523d6000602084013e61076f565b606091505b50509050806107c2578260070180548061078c5761078b611bce565b5b6001900381819060005260206000200160006101000a81549073ffffffffffffffffffffffffffffffffffffffff021916905590555b80610802576040517f08c379a00000000000000000000000000000000000000000000000000000000081526004016107f990611c49565b60405180910390fd5b7f98ea41b8882b2a571886154b9c5006960d1c48995b405a126fd06e5c4bc592308585604051610833929190611c69565b60405180910390a15050505050565b6000806000838152602001908152602001600020604051806101200160405290816000820154815260200160018201805461087c90611cc1565b80601f01602080910402602001604051908101604052809291908181526020018280546108a890611cc1565b80156108f55780601f106108ca576101008083540402835291602001916108f5565b820191906000526020600020905b8154815290600101906020018083116108d857829003601f168201915b505050505081526020016002820160009054906101000a900473ffffffffffffffffffffffffffffffffffffffff1673ffffffffffffffffffffffffffffffffffffffff1673ffffffffffffffffffffffffffffffffffffffff168152602001600382015481526020016004820154815260200160058201548152602001600682018054806020026020016040519081016040528092919081815260200182805480156109f757602002820191906000526020600020905b8160009054906101000a900473ffffffffffffffffffffffffffffffffffffffff1673ffffffffffffffffffffffffffffffffffffffff16815260200190600101908083116109ad575b5050505050815260200160078201805480602002602001604051908101604052809291908181526020018280548015610a8557602002820191906000526020600020905b8160009054906101000a900473ffffffffffffffffffffffffffffffffffffffff1673ffffffffffffffffffffffffffffffffffffffff1681526020019060010190808311610a3b575b505050505081526020016008820160009054906101000a900460ff161515151581525050905080610100015115610af1576040517f08c379a0000000000000000000000000000000000000000000000000000000008152600401610ae890611d3f565b60405180910390fd5b62093a808160600151610b049190611d5f565b421015610b46576040517f08c379a0000000000000000000000000000000000000000000000000000000008152600401610b3d90611e01565b60405180910390fd5b60008160e00151518260c0015151610b5e9190611e21565b90506000826080015182610b729190611e55565b905060018361010001901515908115158152505060003373ffffffffffffffffffffffffffffffffffffffff1682604051610bac90611bb9565b60006040518083038185875af1925050503d8060008114610be9576040519150601f19603f3d011682016040523d82523d6000602084013e610bee565b606091505b5050905080610c0a576000846101000190151590811515815250505b80610c4a576040517f08c379a0000000000000000000000000000000000000000000000000000000008152600401610c4190611c49565b60405180910390fd5b7f393073ea1365f611c3d2f240c992960d2b99dc81715555d3fc40fc55ba80af9c85604051610c799190611eaf565b60405180910390a15050505050565b6000602052806000526040600020600091509050806000015490806001018054610cb190611cc1565b80601f0160208091040260200160405190810160405280929190818152602001828054610cdd90611cc1565b8015610d2a5780601f10610cff57610100808354040283529160200191610d2a565b820191906000526020600020905b815481529060010190602001808311610d0d57829003601f168201915b5050505050908060020160009054906101000a900473ffffffffffffffffffffffffffffffffffffffff16908060030154908060040154908060050154908060080160009054906101000a900460ff16905087565b60008060008381526020019081526020016000206040518061012001604052908160008201548152602001600182018054610db990611cc1565b80601f0160208091040260200160405190810160405280929190818152602001828054610de590611cc1565b8015610e325780601f10610e0757610100808354040283529160200191610e32565b820191906000526020600020905b815481529060010190602001808311610e1557829003601f168201915b505050505081526020016002820160009054906101000a900473ffffffffffffffffffffffffffffffffffffffff1673ffffffffffffffffffffffffffffffffffffffff1673ffffffffffffffffffffffffffffffffffffffff16815260200160038201548152602001600482015481526020016005820154815260200160068201805480602002602001604051908101604052809291908181526020018280548015610f3457602002820191906000526020600020905b8160009054906101000a900473ffffffffffffffffffffffffffffffffffffffff1673ffffffffffffffffffffffffffffffffffffffff1681526020019060010190808311610eea575b5050505050815260200160078201805480602002602001604051908101604052809291908181526020018280548015610fc257602002820191906000526020600020905b8160009054906101000a900473ffffffffffffffffffffffffffffffffffffffff1673ffffffffffffffffffffffffffffffffffffffff1681526020019060010190808311610f78575b505050505081526020016008820160009054906101000a900460ff1615151515815250509050806040015173ffffffffffffffffffffffffffffffffffffffff163373ffffffffffffffffffffffffffffffffffffffff161461105a576040517f08c379a000000000000000000000000000000000000000000000000000000000815260040161105190611f16565b60405180910390fd5b60005b8160c00151518110156110a557611092838360c0015183815181106110855761108461199d565b5b6020026020010151610378565b808061109d906119fb565b91505061105d565b505050565b6000806000838152602001908152602001600020905080600401543414611106576040517f08c379a00000000000000000000000000000000000000000000000000000000081526004016110fd90611f82565b60405180910390fd5b806003015442111561114d576040517f08c379a000000000000000000000000000000000000000000000000000000000815260040161114490611fee565b60405180910390fd5b806005015481600601805490501061119a576040517f08c379a000000000000000000000000000000000000000000000000000000000815260040161119190612080565b60405180910390fd5b60005b816006018054905081101561126e573373ffffffffffffffffffffffffffffffffffffffff168260060182815481106111d9576111d861199d565b5b9060005260206000200160009054906101000a900473ffffffffffffffffffffffffffffffffffffffff1673ffffffffffffffffffffffffffffffffffffffff16141561125b576040517f08c379a0000000000000000000000000000000000000000000000000000000008152600401611252906120ec565b60405180910390fd5b8080611266906119fb565b91505061119d565b5080600601339080600181540180825580915050600190039060005260206000200160009091909190916101000a81548173ffffffffffffffffffffffffffffffffffffffff021916908373ffffffffffffffffffffffffffffffffffffffff1602179055507ff135fe4b8ce34a516f7df83bf9fd8f2ebcd44b040aef95d6036b74b2f29c52e48233604051611305929190611c69565b60405180910390a15050565b82805461131d90611cc1565b90600052602060002090601f01602090048101928261133f5760008555611386565b82601f1061135857805160ff1916838001178555611386565b82800160010185558215611386579182015b8281111561138557825182559160200191906001019061136a565b5b5090506113939190611421565b5090565b828054828255906000526020600020908101928215611410579160200282015b8281111561140f5782518260006101000a81548173ffffffffffffffffffffffffffffffffffffffff021916908373ffffffffffffffffffffffffffffffffffffffff160217905550916020019190600101906113b7565b5b50905061141d9190611421565b5090565b5b8082111561143a576000816000905550600101611422565b5090565b600080fd5b600080fd5b6000819050919050565b61145b81611448565b811461146657600080fd5b50565b60008135905061147881611452565b92915050565b600080fd5b600080fd5b600080fd5b60008083601f8401126114a3576114a261147e565b5b8235905067ffffffffffffffff8111156114c0576114bf611483565b5b6020830191508360018202830111156114dc576114db611488565b5b9250929050565b6000806000806000608086880312156114ff576114fe61143e565b5b600061150d88828901611469565b955050602061151e88828901611469565b945050604061152f88828901611469565b935050606086013567ffffffffffffffff8111156115505761154f611443565b5b61155c8882890161148d565b92509250509295509295909350565b6000819050919050565b61157e8161156b565b811461158957600080fd5b50565b60008135905061159b81611575565b92915050565b600073ffffffffffffffffffffffffffffffffffffffff82169050919050565b60006115cc826115a1565b9050919050565b6115dc816115c1565b81146115e757600080fd5b50565b6000813590506115f9816115d3565b92915050565b600080604083850312156116165761161561143e565b5b60006116248582860161158c565b9250506020611635858286016115ea565b9150509250929050565b6000602082840312156116555761165461143e565b5b60006116638482850161158c565b91505092915050565b6116758161156b565b82525050565b600081519050919050565b600082825260208201905092915050565b60005b838110156116b557808201518184015260208101905061169a565b838111156116c4576000848401525b50505050565b6000601f19601f8301169050919050565b60006116e68261167b565b6116f08185611686565b9350611700818560208601611697565b611709816116ca565b840191505092915050565b61171d816115c1565b82525050565b61172c81611448565b82525050565b60008115159050919050565b61174781611732565b82525050565b600060e082019050611762600083018a61166c565b818103602083015261177481896116db565b90506117836040830188611714565b6117906060830187611723565b61179d6080830186611723565b6117aa60a0830185611723565b6117b760c083018461173e565b98975050505050505050565b60008160601b9050919050565b60006117db826117c3565b9050919050565b60006117ed826117d0565b9050919050565b611805611800826115c1565b6117e2565b82525050565b6000819050919050565b61182661182182611448565b61180b565b82525050565b600061183882886117f4565b60148201915061184882876117f4565b6014820191506118588286611815565b6020820191506118688285611815565b6020820191506118788284611815565b6020820191508190509695505050505050565b82818337600083830152505050565b60006118a68385611686565b93506118b383858461188b565b6118bc836116ca565b840190509392505050565b600060c0820190506118dc600083018a61166c565b6118e96020830189611714565b6118f66040830188611723565b6119036060830187611723565b6119106080830186611723565b81810360a083015261192381848661189a565b905098975050505050505050565b7f4e4f5420417574686f72697a6564000000000000000000000000000000000000600082015250565b6000611967600e83611686565b915061197282611931565b602082019050919050565b600060208201905081810360008301526119968161195a565b9050919050565b7f4e487b7100000000000000000000000000000000000000000000000000000000600052603260045260246000fd5b7f4e487b7100000000000000000000000000000000000000000000000000000000600052601160045260246000fd5b6000611a0682611448565b91507fffffffffffffffffffffffffffffffffffffffffffffffffffffffffffffffff821415611a3957611a386119cc565b5b600182019050919050565b7f4e6f205253565020544f20434f4e4649524d0000000000000000000000000000600082015250565b6000611a7a601283611686565b9150611a8582611a44565b602082019050919050565b60006020820190508181036000830152611aa981611a6d565b9050919050565b7f414c726561647920436c61696d65640000000000000000000000000000000000600082015250565b6000611ae6600f83611686565b9150611af182611ab0565b602082019050919050565b60006020820190508181036000830152611b1581611ad9565b9050919050565b7f416c72656164792050414944204f555400000000000000000000000000000000600082015250565b6000611b52601083611686565b9150611b5d82611b1c565b602082019050919050565b60006020820190508181036000830152611b8181611b45565b9050919050565b600081905092915050565b50565b6000611ba3600083611b88565b9150611bae82611b93565b600082019050919050565b6000611bc482611b96565b9150819050919050565b7f4e487b7100000000000000000000000000000000000000000000000000000000600052603160045260246000fd5b7f4661696c656420544f2053454e44204554484552000000000000000000000000600082015250565b6000611c33601483611686565b9150611c3e82611bfd565b602082019050919050565b60006020820190508181036000830152611c6281611c26565b9050919050565b6000604082019050611c7e600083018561166c565b611c8b6020830184611714565b9392505050565b7f4e487b7100000000000000000000000000000000000000000000000000000000600052602260045260246000fd5b60006002820490506001821680611cd957607f821691505b60208210811415611ced57611cec611c92565b5b50919050565b7f416c726561647920506169644f75740000000000000000000000000000000000600082015250565b6000611d29600f83611686565b9150611d3482611cf3565b602082019050919050565b60006020820190508181036000830152611d5881611d1c565b9050919050565b6000611d6a82611448565b9150611d7583611448565b9250827fffffffffffffffffffffffffffffffffffffffffffffffffffffffffffffffff03821115611daa57611da96119cc565b5b828201905092915050565b7f546f6f204561726c790000000000000000000000000000000000000000000000600082015250565b6000611deb600983611686565b9150611df682611db5565b602082019050919050565b60006020820190508181036000830152611e1a81611dde565b9050919050565b6000611e2c82611448565b9150611e3783611448565b925082821015611e4a57611e496119cc565b5b828203905092915050565b6000611e6082611448565b9150611e6b83611448565b9250817fffffffffffffffffffffffffffffffffffffffffffffffffffffffffffffffff0483118215151615611ea457611ea36119cc565b5b828202905092915050565b6000602082019050611ec4600083018461166c565b92915050565b7f4e6f7420417574686f72697a6564000000000000000000000000000000000000600082015250565b6000611f00600e83611686565b9150611f0b82611eca565b602082019050919050565b60006020820190508181036000830152611f2f81611ef3565b9050919050565b7f4e4f5420454e4f55474800000000000000000000000000000000000000000000600082015250565b6000611f6c600a83611686565b9150611f7782611f36565b602082019050919050565b60006020820190508181036000830152611f9b81611f5f565b9050919050565b7f416c72656164792048617070656e656400000000000000000000000000000000600082015250565b6000611fd8601083611686565b9150611fe382611fa2565b602082019050919050565b6000602082019050818103600083015261200781611fcb565b9050919050565b7f54686973204576656e74206861732052656163686564206d617820436170616360008201527f6974790000000000000000000000000000000000000000000000000000000000602082015250565b600061206a602383611686565b91506120758261200e565b604082019050919050565b600060208201905081810360008301526120998161205d565b9050919050565b7f416c726561647920436f6e6669726d6564000000000000000000000000000000600082015250565b60006120d6601183611686565b91506120e1826120a0565b602082019050919050565b60006020820190508181036000830152612105816120c9565b905091905056fea2646970667358221220b5168aafde05c778a00f2500412b966b3e418bdf7ee8100c11bc2df654e7cb9164736f6c63430008090033",
  "linkReferences": {},
  "deployedLinkReferences": {}
}